{
  "contractName": "Certifiction",
  "abi": [
    {
      "inputs": [],
      "stateMutability": "nonpayable",
      "type": "constructor"
    },
    {
      "anonymous": false,
      "inputs": [
        {
          "indexed": false,
          "internalType": "address",
          "name": "sender",
          "type": "address"
        },
        {
          "indexed": false,
          "internalType": "bool",
          "name": "created",
          "type": "bool"
        }
      ],
      "name": "certificateCreated",
      "type": "event"
    },
    {
      "anonymous": false,
      "inputs": [
        {
          "indexed": false,
          "internalType": "address",
          "name": "sender",
          "type": "address"
        },
        {
          "indexed": false,
          "internalType": "bool",
          "name": "created",
          "type": "bool"
        }
      ],
      "name": "courseCreated",
      "type": "event"
    },
    {
      "anonymous": false,
      "inputs": [
        {
          "indexed": false,
          "internalType": "address",
          "name": "sender",
          "type": "address"
        },
        {
          "indexed": false,
          "internalType": "bool",
          "name": "created",
          "type": "bool"
        }
      ],
      "name": "schoolCreated",
      "type": "event"
    },
    {
      "anonymous": false,
      "inputs": [
        {
          "indexed": false,
          "internalType": "address",
          "name": "sender",
          "type": "address"
        },
        {
          "indexed": false,
          "internalType": "bool",
          "name": "created",
          "type": "bool"
        }
      ],
      "name": "studentCreated",
      "type": "event"
    },
    {
      "inputs": [
        {
          "internalType": "uint256",
          "name": "",
          "type": "uint256"
        }
      ],
      "name": "certificateList",
      "outputs": [
        {
          "internalType": "bytes32",
          "name": "",
          "type": "bytes32"
        }
      ],
      "stateMutability": "view",
      "type": "function"
    },
    {
      "inputs": [],
      "name": "owner",
      "outputs": [
        {
          "internalType": "address",
          "name": "",
          "type": "address"
        }
      ],
      "stateMutability": "view",
      "type": "function"
    },
    {
      "inputs": [],
      "name": "schoolCount",
      "outputs": [
        {
          "internalType": "uint256",
          "name": "",
          "type": "uint256"
        }
      ],
      "stateMutability": "view",
      "type": "function"
    },
    {
      "inputs": [
        {
          "internalType": "uint256",
          "name": "",
          "type": "uint256"
        }
      ],
      "name": "schoolList",
      "outputs": [
        {
          "internalType": "address",
          "name": "",
          "type": "address"
        }
      ],
      "stateMutability": "view",
      "type": "function"
    },
    {
      "inputs": [],
      "name": "studentCount",
      "outputs": [
        {
          "internalType": "uint256",
          "name": "",
          "type": "uint256"
        }
      ],
      "stateMutability": "view",
      "type": "function"
    },
    {
      "inputs": [
        {
          "internalType": "uint256",
          "name": "",
          "type": "uint256"
        }
      ],
      "name": "studentList",
      "outputs": [
        {
          "internalType": "address",
          "name": "",
          "type": "address"
        }
      ],
      "stateMutability": "view",
      "type": "function"
    },
    {
      "inputs": [
        {
          "internalType": "address",
          "name": "_id",
          "type": "address"
        },
        {
          "internalType": "string",
          "name": "_name",
          "type": "string"
        },
        {
          "internalType": "string",
          "name": "_IPFShash",
          "type": "string"
        }
      ],
      "name": "createStudent",
      "outputs": [
        {
          "internalType": "bool",
          "name": "success",
          "type": "bool"
        }
      ],
      "stateMutability": "nonpayable",
      "type": "function"
    },
    {
      "inputs": [
        {
          "internalType": "address",
          "name": "_id",
          "type": "address"
        },
        {
          "internalType": "string",
          "name": "_name",
          "type": "string"
        },
        {
          "internalType": "string",
          "name": "_IPFShash",
          "type": "string"
        }
      ],
      "name": "createSchool",
      "outputs": [
        {
          "internalType": "bool",
          "name": "success",
          "type": "bool"
        }
      ],
      "stateMutability": "nonpayable",
      "type": "function"
    },
    {
      "inputs": [
        {
          "internalType": "string",
          "name": "_name",
          "type": "string"
        },
        {
          "internalType": "address",
          "name": "_schoolID",
          "type": "address"
        }
      ],
      "name": "createCourse",
      "outputs": [
        {
          "internalType": "bool",
          "name": "success",
          "type": "bool"
        }
      ],
      "stateMutability": "nonpayable",
      "type": "function"
    },
    {
      "inputs": [
        {
          "internalType": "address",
          "name": "_studentID",
          "type": "address"
        },
        {
          "internalType": "address",
          "name": "_schoolID",
          "type": "address"
        },
        {
          "internalType": "string",
          "name": "_courseName",
          "type": "string"
        }
      ],
      "name": "createCertificate",
      "outputs": [
        {
          "internalType": "bool",
          "name": "success",
          "type": "bool"
        }
      ],
      "stateMutability": "nonpayable",
      "type": "function"
    }
  ],
  "bytecode": "0x608060405234801561001057600080fd5b50610ed6806100206000396000f3fe608060405234801561001057600080fd5b506004361061009e5760003560e01c80638da5cb5b116100665780638da5cb5b14610181578063ada679ec1461019f578063db89f1c4146101cf578063e581f9ee146101ff578063f511c4dc1461021d5761009e565b80630db4dadc146100a357806328d88890146100d35780633ca03fcc146100f1578063699769c5146101215780637df221e914610151575b600080fd5b6100bd60048036038101906100b89190610ac2565b61024d565b6040516100ca9190610b4c565b60405180910390f35b6100db610328565b6040516100e89190610b80565b60405180910390f35b61010b60048036038101906101069190610bc7565b61032e565b6040516101189190610c0d565b60405180910390f35b61013b60048036038101906101369190610c28565b610352565b6040516101489190610b4c565b60405180910390f35b61016b60048036038101906101669190610bc7565b610484565b6040516101789190610cc2565b60405180910390f35b6101896104c3565b6040516101969190610cc2565b60405180910390f35b6101b960048036038101906101b49190610cdd565b6104e7565b6040516101c69190610b4c565b60405180910390f35b6101e960048036038101906101e49190610bc7565b6105c1565b6040516101f69190610cc2565b60405180910390f35b610207610600565b6040516102149190610b80565b60405180910390f35b61023760048036038101906102329190610c28565b610606565b6040516102449190610b4c565b60405180910390f35b600082600360008273ffffffffffffffffffffffffffffffffffffffff1673ffffffffffffffffffffffffffffffffffffffff16815260200190815260200160002060040160009054906101000a900473ffffffffffffffffffffffffffffffffffffffff1673ffffffffffffffffffffffffffffffffffffffff163373ffffffffffffffffffffffffffffffffffffffff1614610320576040517f08c379a000000000000000000000000000000000000000000000000000000000815260040161031790610dbc565b60405180910390fd5b509392505050565b60015481565b6008818154811061033e57600080fd5b906000526020600020016000915090505481565b6000604051806080016040528060088054806020026020016040519081016040528092919081815260200182805480156103ab57602002820191906000526020600020905b815481526020019060010190808311610397575b5050505050815260200160016008805490506103c79190610e0b565b815260200184815260200183815250600560008673ffffffffffffffffffffffffffffffffffffffff1673ffffffffffffffffffffffffffffffffffffffff16815260200190815260200160002060008201518160000190805190602001906104319291906107fd565b5060208201518160010155604082015181600201908051906020019061045892919061084a565b50606082015181600301908051906020019061047592919061084a565b50905050600190509392505050565b6006818154811061049457600080fd5b906000526020600020016000915054906101000a900473ffffffffffffffffffffffffffffffffffffffff1681565b60008054906101000a900473ffffffffffffffffffffffffffffffffffffffff1681565b600081600360008273ffffffffffffffffffffffffffffffffffffffff1673ffffffffffffffffffffffffffffffffffffffff16815260200190815260200160002060040160009054906101000a900473ffffffffffffffffffffffffffffffffffffffff1673ffffffffffffffffffffffffffffffffffffffff163373ffffffffffffffffffffffffffffffffffffffff16146105ba576040517f08c379a00000000000000000000000000000000000000000000000000000000081526004016105b190610dbc565b60405180910390fd5b5092915050565b600481815481106105d157600080fd5b906000526020600020016000915054906101000a900473ffffffffffffffffffffffffffffffffffffffff1681565b60025481565b60006004849080600181540180825580915050600190039060005260206000200160009091909190916101000a81548173ffffffffffffffffffffffffffffffffffffffff021916908373ffffffffffffffffffffffffffffffffffffffff160217905550600160048054905061067d9190610e0b565b600360008673ffffffffffffffffffffffffffffffffffffffff1673ffffffffffffffffffffffffffffffffffffffff1681526020019081526020016000206001018190555082600360008673ffffffffffffffffffffffffffffffffffffffff1673ffffffffffffffffffffffffffffffffffffffff168152602001908152602001600020600201908051906020019061071992919061084a565b5081600360008673ffffffffffffffffffffffffffffffffffffffff1673ffffffffffffffffffffffffffffffffffffffff168152602001908152602001600020600301908051906020019061077092919061084a565b5033600360008673ffffffffffffffffffffffffffffffffffffffff1673ffffffffffffffffffffffffffffffffffffffff16815260200190815260200160002060040160006101000a81548173ffffffffffffffffffffffffffffffffffffffff021916908373ffffffffffffffffffffffffffffffffffffffff160217905550600190509392505050565b828054828255906000526020600020908101928215610839579160200282015b8281111561083857825182559160200191906001019061081d565b5b50905061084691906108d0565b5090565b82805461085690610e6e565b90600052602060002090601f01602090048101928261087857600085556108bf565b82601f1061089157805160ff19168380011785556108bf565b828001600101855582156108bf579182015b828111156108be5782518255916020019190600101906108a3565b5b5090506108cc91906108ed565b5090565b5b808211156108e95760008160009055506001016108d1565b5090565b5b808211156109065760008160009055506001016108ee565b5090565b6000604051905090565b600080fd5b600080fd5b600073ffffffffffffffffffffffffffffffffffffffff82169050919050565b60006109498261091e565b9050919050565b6109598161093e565b811461096457600080fd5b50565b60008135905061097681610950565b92915050565b600080fd5b600080fd5b6000601f19601f8301169050919050565b7f4e487b7100000000000000000000000000000000000000000000000000000000600052604160045260246000fd5b6109cf82610986565b810181811067ffffffffffffffff821117156109ee576109ed610997565b5b80604052505050565b6000610a0161090a565b9050610a0d82826109c6565b919050565b600067ffffffffffffffff821115610a2d57610a2c610997565b5b610a3682610986565b9050602081019050919050565b82818337600083830152505050565b6000610a65610a6084610a12565b6109f7565b905082815260208101848484011115610a8157610a80610981565b5b610a8c848285610a43565b509392505050565b600082601f830112610aa957610aa861097c565b5b8135610ab9848260208601610a52565b91505092915050565b600080600060608486031215610adb57610ada610914565b5b6000610ae986828701610967565b9350506020610afa86828701610967565b925050604084013567ffffffffffffffff811115610b1b57610b1a610919565b5b610b2786828701610a94565b9150509250925092565b60008115159050919050565b610b4681610b31565b82525050565b6000602082019050610b616000830184610b3d565b92915050565b6000819050919050565b610b7a81610b67565b82525050565b6000602082019050610b956000830184610b71565b92915050565b610ba481610b67565b8114610baf57600080fd5b50565b600081359050610bc181610b9b565b92915050565b600060208284031215610bdd57610bdc610914565b5b6000610beb84828501610bb2565b91505092915050565b6000819050919050565b610c0781610bf4565b82525050565b6000602082019050610c226000830184610bfe565b92915050565b600080600060608486031215610c4157610c40610914565b5b6000610c4f86828701610967565b935050602084013567ffffffffffffffff811115610c7057610c6f610919565b5b610c7c86828701610a94565b925050604084013567ffffffffffffffff811115610c9d57610c9c610919565b5b610ca986828701610a94565b9150509250925092565b610cbc8161093e565b82525050565b6000602082019050610cd76000830184610cb3565b92915050565b60008060408385031215610cf457610cf3610914565b5b600083013567ffffffffffffffff811115610d1257610d11610919565b5b610d1e85828601610a94565b9250506020610d2f85828601610967565b9150509250929050565b600082825260208201905092915050565b7f4d75737420626520746865207363686f6f6c20746f2063616c6c20746869732060008201527f66756e6374696f6e000000000000000000000000000000000000000000000000602082015250565b6000610da6602883610d39565b9150610db182610d4a565b604082019050919050565b60006020820190508181036000830152610dd581610d99565b9050919050565b7f4e487b7100000000000000000000000000000000000000000000000000000000600052601160045260246000fd5b6000610e1682610b67565b9150610e2183610b67565b925082821015610e3457610e33610ddc565b5b828203905092915050565b7f4e487b7100000000000000000000000000000000000000000000000000000000600052602260045260246000fd5b60006002820490506001821680610e8657607f821691505b60208210811415610e9a57610e99610e3f565b5b5091905056fea26469706673582212205bead757bee7913c94c89b1f244f660f2258d2b2d5aa5d91e40693d8d29e70bf64736f6c63430008090033",
  "immutableReferences": {},
  "source": "// SPDX-License-Identifier: MIT\r\npragma solidity >=0.8.9 <0.9.0;\r\n// import \"./Users.sol\";\r\n\r\n// TODO add NatSpec for every parameters like below\r\n/// @title\r\n/// @author Sarem Eskandary\r\n/// @notice \r\n/// @dev\r\ncontract Certifiction {\r\n    ////////////////////   State variables   ////////////////////\r\n    address public owner;\r\n    uint public schoolCount;\r\n    uint public studentCount;\r\n    ////////////////////   events     ////////////////////\r\n    // event personAdded(User user);\r\n    event studentCreated(address sender, bool created );\r\n    event schoolCreated(address sender, bool created );\r\n    event certificateCreated(address sender, bool created );\r\n    event courseCreated(address sender, bool created );\r\n\r\n    ////////////////////   enums     ////////////////////\r\n\r\n    ////////////////////   struct     ////////////////////\r\n    struct School {\r\n        bytes32[]   certificateList;\r\n        uint        certificatePointer;\r\n        string      name;\r\n        string      IPFShash; // additional info\r\n        address     schoolOwner;\r\n    }\r\n    mapping (address=>School) schoolStruct;\r\n    address[] public schoolList;\r\n\r\n    struct Student {\r\n        bytes32[]   certificateList;\r\n        uint        certificatePointer;\r\n        string      name;\r\n        string      IPFShash; // additional info\r\n    }\r\n    mapping (address=>Student) studentListtruct;\r\n    address[] public studentList;\r\n\r\n    struct Certificate {\r\n        uint        certificatePointer;\r\n        address     studentID;\r\n        address     schoolID;\r\n        string      courseName;\r\n    }\r\n    mapping (bytes32=>Certificate) certificateStruct;\r\n    bytes32[] public certificateList;\r\n\r\n    ////////////////////   modifiers  ////////////////////\r\n    modifier isOwner() {\r\n        require(msg.sender == owner, \"Must be the owner to call this function\");\r\n        _;\r\n    }\r\n    modifier verifyCaller(address _address) {\r\n        require(msg.sender == _address, \"Unrecognized caller\");\r\n        _;\r\n    }\r\n    modifier isSchool(address _schoolOwner) {\r\n        require(msg.sender == schoolStruct[_schoolOwner].schoolOwner , \"Must be the school to call this function\");\r\n        _;\r\n    }\r\n\r\n    /// @dev student should allow that how can see it's name or certificate\r\n    // modifier isPersonAllowed() {\r\n    //     require(personAllowed == true);\r\n    //     _;\r\n    // }\r\n\r\n    constructor() {\r\n    }\r\n\r\n    /// @dev school should add student to the school list\r\n    function createStudent(address _id,string memory _name, string memory _IPFShash) public returns(bool success) {\r\n        studentListtruct[_id] = Student({\r\n            certificateList: certificateList,\r\n            certificatePointer: certificateList.length - 1,\r\n            name: _name,\r\n            IPFShash: _IPFShash\r\n        });\r\n        // emit studentCreated(msg.sender);\r\n        return (true);\r\n    }\r\n    function createSchool(address _id, string memory _name, string memory _IPFShash) public returns (bool success) {\r\n        schoolList.push(_id);\r\n        schoolStruct[_id].certificatePointer = schoolList.length - 1;\r\n        schoolStruct[_id].name = _name;\r\n        schoolStruct[_id].IPFShash = _IPFShash;\r\n        schoolStruct[_id].schoolOwner = msg.sender;\r\n        return (true);\r\n    }\r\n    function createCourse(string memory _name, address _schoolID) \r\n    public isSchool(_schoolID) returns (bool success) {\r\n        \r\n    }\r\n    function createCertificate(address _studentID, address _schoolID, string memory _courseName) \r\n    public isSchool(_schoolID) returns (bool success) {\r\n        \r\n    }\r\n\r\n    /// @dev school should add person to the school list\r\n    // function addstudentListPassedLesson(type name) public onlySchool {\r\n    //     string lessonName;\r\n    //     uint lessonGrade;\r\n    // }\r\n\r\n    // function create(string memory _courseName, address user) public onlySchool {\r\n    //     items[_id].user == User;\r\n\r\n    // }\r\n    // function getCertificate(address copmany) view public onlySchool returns (string _copmany)  {\r\n        \r\n    // }\r\n\r\n    // function fetchStudent(address _studentAddress) view public returns (type name) {\r\n        \r\n    // }\r\n}\r\n",
  "sourcePath": "D:\\preject\\solidity-code\\blockchain-developer-bootcamp-final-project\\contracts\\Certifiction.sol",
  "compiler": {
    "name": "solc",
    "version": "0.8.9+commit.e5eed63a.Emscripten.clang"
  },
  "schemaVersion": "3.4.3",
  "updatedAt": "2021-11-17T18:52:17.608Z",
  "devdoc": {
    "kind": "dev",
    "methods": {
      "constructor": {
        "details": "student should allow that how can see it's name or certificate"
      },
      "createStudent(address,string,string)": {
        "details": "school should add student to the school list"
      }
    },
    "title": "@author Sarem Eskandary",
    "version": 1
  },
  "userdoc": {
    "kind": "user",
    "methods": {},
    "version": 1
  }
}