{
  "contractName": "Certification",
  "abi": [
    {
      "inputs": [],
      "stateMutability": "nonpayable",
      "type": "constructor"
    },
    {
      "anonymous": false,
      "inputs": [
        {
          "indexed": true,
          "internalType": "string",
          "name": "_courseName",
          "type": "string"
        }
      ],
      "name": "certificateCreated",
      "type": "event"
    },
    {
      "anonymous": false,
      "inputs": [
        {
          "indexed": true,
          "internalType": "address",
          "name": "sender",
          "type": "address"
        }
      ],
      "name": "courseCreated",
      "type": "event"
    },
    {
      "anonymous": false,
      "inputs": [
        {
          "indexed": true,
          "internalType": "address",
          "name": "sender",
          "type": "address"
        },
        {
          "indexed": true,
          "internalType": "string",
          "name": "name",
          "type": "string"
        },
        {
          "indexed": true,
          "internalType": "string",
          "name": "IPFShash",
          "type": "string"
        }
      ],
      "name": "schoolCreated",
      "type": "event"
    },
    {
      "anonymous": false,
      "inputs": [
        {
          "indexed": true,
          "internalType": "address",
          "name": "sender",
          "type": "address"
        },
        {
          "indexed": true,
          "internalType": "string",
          "name": "name",
          "type": "string"
        },
        {
          "indexed": true,
          "internalType": "string",
          "name": "IPFShash",
          "type": "string"
        }
      ],
      "name": "studentCreated",
      "type": "event"
    },
    {
      "inputs": [
        {
          "internalType": "uint256",
          "name": "",
          "type": "uint256"
        }
      ],
      "name": "certificateList",
      "outputs": [
        {
          "internalType": "bytes32",
          "name": "",
          "type": "bytes32"
        }
      ],
      "stateMutability": "view",
      "type": "function",
      "constant": true
    },
    {
      "inputs": [
        {
          "internalType": "bytes32",
          "name": "",
          "type": "bytes32"
        }
      ],
      "name": "certificateStruct",
      "outputs": [
        {
          "internalType": "uint256",
          "name": "certificatePointer",
          "type": "uint256"
        },
        {
          "internalType": "address",
          "name": "studentID",
          "type": "address"
        },
        {
          "internalType": "address",
          "name": "schoolID",
          "type": "address"
        },
        {
          "internalType": "bytes32",
          "name": "courseID",
          "type": "bytes32"
        },
        {
          "internalType": "string",
          "name": "courseName",
          "type": "string"
        }
      ],
      "stateMutability": "view",
      "type": "function",
      "constant": true
    },
    {
      "inputs": [
        {
          "internalType": "uint256",
          "name": "",
          "type": "uint256"
        }
      ],
      "name": "courseList",
      "outputs": [
        {
          "internalType": "bytes32",
          "name": "",
          "type": "bytes32"
        }
      ],
      "stateMutability": "view",
      "type": "function",
      "constant": true
    },
    {
      "inputs": [
        {
          "internalType": "bytes32",
          "name": "",
          "type": "bytes32"
        }
      ],
      "name": "courseStruct",
      "outputs": [
        {
          "internalType": "uint256",
          "name": "certificatePointer",
          "type": "uint256"
        },
        {
          "internalType": "address",
          "name": "schoolID",
          "type": "address"
        },
        {
          "internalType": "string",
          "name": "courseName",
          "type": "string"
        },
        {
          "internalType": "string",
          "name": "IPFShash",
          "type": "string"
        }
      ],
      "stateMutability": "view",
      "type": "function",
      "constant": true
    },
    {
      "inputs": [],
      "name": "owner",
      "outputs": [
        {
          "internalType": "address",
          "name": "",
          "type": "address"
        }
      ],
      "stateMutability": "view",
      "type": "function",
      "constant": true
    },
    {
      "inputs": [],
      "name": "schoolCount",
      "outputs": [
        {
          "internalType": "uint256",
          "name": "",
          "type": "uint256"
        }
      ],
      "stateMutability": "view",
      "type": "function",
      "constant": true
    },
    {
      "inputs": [
        {
          "internalType": "uint256",
          "name": "",
          "type": "uint256"
        }
      ],
      "name": "schoolList",
      "outputs": [
        {
          "internalType": "address",
          "name": "",
          "type": "address"
        }
      ],
      "stateMutability": "view",
      "type": "function",
      "constant": true
    },
    {
      "inputs": [
        {
          "internalType": "address",
          "name": "",
          "type": "address"
        }
      ],
      "name": "schoolStruct",
      "outputs": [
        {
          "internalType": "uint256",
          "name": "certificatePointer",
          "type": "uint256"
        },
        {
          "internalType": "string",
          "name": "name",
          "type": "string"
        },
        {
          "internalType": "string",
          "name": "IPFShash",
          "type": "string"
        },
        {
          "internalType": "address",
          "name": "schoolOwner",
          "type": "address"
        }
      ],
      "stateMutability": "view",
      "type": "function",
      "constant": true
    },
    {
      "inputs": [],
      "name": "studentCount",
      "outputs": [
        {
          "internalType": "uint256",
          "name": "",
          "type": "uint256"
        }
      ],
      "stateMutability": "view",
      "type": "function",
      "constant": true
    },
    {
      "inputs": [
        {
          "internalType": "uint256",
          "name": "",
          "type": "uint256"
        }
      ],
      "name": "studentList",
      "outputs": [
        {
          "internalType": "address",
          "name": "",
          "type": "address"
        }
      ],
      "stateMutability": "view",
      "type": "function",
      "constant": true
    },
    {
      "inputs": [
        {
          "internalType": "address",
          "name": "",
          "type": "address"
        }
      ],
      "name": "studentListtruct",
      "outputs": [
        {
          "internalType": "uint256",
          "name": "certificatePointer",
          "type": "uint256"
        },
        {
          "internalType": "string",
          "name": "name",
          "type": "string"
        },
        {
          "internalType": "string",
          "name": "IPFShash",
          "type": "string"
        }
      ],
      "stateMutability": "view",
      "type": "function",
      "constant": true
    },
    {
      "inputs": [
        {
          "internalType": "string",
          "name": "_name",
          "type": "string"
        },
        {
          "internalType": "string",
          "name": "_IPFShash",
          "type": "string"
        }
      ],
      "name": "createStudent",
      "outputs": [
        {
          "internalType": "bool",
          "name": "success",
          "type": "bool"
        }
      ],
      "stateMutability": "nonpayable",
      "type": "function"
    },
    {
      "inputs": [
        {
          "internalType": "string",
          "name": "_name",
          "type": "string"
        },
        {
          "internalType": "string",
          "name": "_IPFShash",
          "type": "string"
        }
      ],
      "name": "createSchool",
      "outputs": [
        {
          "internalType": "bool",
          "name": "success",
          "type": "bool"
        }
      ],
      "stateMutability": "nonpayable",
      "type": "function"
    },
    {
      "inputs": [
        {
          "internalType": "string",
          "name": "_name",
          "type": "string"
        }
      ],
      "name": "createCourse",
      "outputs": [
        {
          "internalType": "bool",
          "name": "success",
          "type": "bool"
        }
      ],
      "stateMutability": "nonpayable",
      "type": "function"
    },
    {
      "inputs": [
        {
          "internalType": "bytes32",
          "name": "_ID",
          "type": "bytes32"
        },
        {
          "internalType": "address",
          "name": "_student",
          "type": "address"
        },
        {
          "internalType": "string",
          "name": "_courseName",
          "type": "string"
        }
      ],
      "name": "createCertificate",
      "outputs": [
        {
          "internalType": "bool",
          "name": "success",
          "type": "bool"
        }
      ],
      "stateMutability": "nonpayable",
      "type": "function"
    },
    {
      "inputs": [
        {
          "internalType": "address",
          "name": "_schoolAddress",
          "type": "address"
        }
      ],
      "name": "fetchSchool",
      "outputs": [
        {
          "internalType": "uint256",
          "name": "certificatePointer",
          "type": "uint256"
        },
        {
          "internalType": "string",
          "name": "name",
          "type": "string"
        },
        {
          "internalType": "string",
          "name": "IPFShash",
          "type": "string"
        },
        {
          "internalType": "address",
          "name": "schoolOwner",
          "type": "address"
        }
      ],
      "stateMutability": "view",
      "type": "function",
      "constant": true
    },
    {
      "inputs": [
        {
          "internalType": "address",
          "name": "_studentAddress",
          "type": "address"
        }
      ],
      "name": "fetchStudent",
      "outputs": [
        {
          "internalType": "uint256",
          "name": "certificatePointer",
          "type": "uint256"
        },
        {
          "internalType": "string",
          "name": "name",
          "type": "string"
        },
        {
          "internalType": "string",
          "name": "IPFShash",
          "type": "string"
        }
      ],
      "stateMutability": "view",
      "type": "function",
      "constant": true
    },
    {
      "inputs": [
        {
          "internalType": "bytes32",
          "name": "_certificate",
          "type": "bytes32"
        }
      ],
      "name": "fetchCertificate",
      "outputs": [
        {
          "internalType": "uint256",
          "name": "certificatePointer",
          "type": "uint256"
        },
        {
          "internalType": "address",
          "name": "studentID",
          "type": "address"
        },
        {
          "internalType": "address",
          "name": "schoolID",
          "type": "address"
        },
        {
          "internalType": "bytes32",
          "name": "courseID",
          "type": "bytes32"
        },
        {
          "internalType": "string",
          "name": "courseName",
          "type": "string"
        }
      ],
      "stateMutability": "view",
      "type": "function",
      "constant": true
    }
  ],
  "bytecode": "0x608060405234801561001057600080fd5b50611fa5806100206000396000f3fe608060405234801561001057600080fd5b50600436106101165760003560e01c8063864ed44d116100a2578063a9a817f611610071578063a9a817f614610375578063cfa20991146103a5578063db89f1c4146103d8578063e581f9ee14610408578063f2d6e43f1461042657610116565b8063864ed44d146102c15780638a38ab2c146102f55780638da5cb5b14610325578063a423f92e1461034357610116565b8063559f10c9116100e9578063559f10c9146101ce57806356963b89146101fe57806360a0bdda146102315780637c91772a146102615780637df221e91461029157610116565b806309abaa2c1461011b57806328d888901461014e578063388f32cf1461016c5780633ca03fcc1461019e575b600080fd5b610135600480360381019061013091906117dc565b61045a565b60405161014594939291906118ca565b60405180910390f35b6101566106ac565b604051610163919061191d565b60405180910390f35b610186600480360381019061018191906117dc565b6106b2565b60405161019593929190611938565b60405180910390f35b6101b860048036038101906101b391906119a9565b6107ec565b6040516101c591906119ef565b60405180910390f35b6101e860048036038101906101e39190611b6b565b610810565b6040516101f59190611bf5565b60405180910390f35b61021860048036038101906102139190611c10565b610a5b565b6040516102289493929190611c3d565b60405180910390f35b61024b600480360381019061024691906119a9565b610bbb565b60405161025891906119ef565b60405180910390f35b61027b60048036038101906102769190611c90565b610bdf565b6040516102889190611bf5565b60405180910390f35b6102ab60048036038101906102a691906119a9565b610dc3565b6040516102b89190611d08565b60405180910390f35b6102db60048036038101906102d69190611c10565b610e02565b6040516102ec959493929190611d23565b60405180910390f35b61030f600480360381019061030a9190611d7d565b610f58565b60405161031c9190611bf5565b60405180910390f35b61032d611031565b60405161033a9190611d08565b60405180910390f35b61035d600480360381019061035891906117dc565b611055565b60405161036c93929190611938565b60405180910390f35b61038f600480360381019061038a9190611c90565b611240565b60405161039c9190611bf5565b60405180910390f35b6103bf60048036038101906103ba91906117dc565b611424565b6040516103cf94939291906118ca565b60405180910390f35b6103f260048036038101906103ed91906119a9565b611584565b6040516103ff9190611d08565b60405180910390f35b6104106115c3565b60405161041d919061191d565b60405180910390f35b610440600480360381019061043b9190611c10565b6115c9565b604051610451959493929190611d23565b60405180910390f35b60006060806000600360008673ffffffffffffffffffffffffffffffffffffffff1673ffffffffffffffffffffffffffffffffffffffff168152602001908152602001600020600101549350600360008673ffffffffffffffffffffffffffffffffffffffff1673ffffffffffffffffffffffffffffffffffffffff16815260200190815260200160002060020180546104f390611df5565b80601f016020809104026020016040519081016040528092919081815260200182805461051f90611df5565b801561056c5780601f106105415761010080835404028352916020019161056c565b820191906000526020600020905b81548152906001019060200180831161054f57829003601f168201915b50505050509250600360008673ffffffffffffffffffffffffffffffffffffffff1673ffffffffffffffffffffffffffffffffffffffff16815260200190815260200160002060030180546105c090611df5565b80601f01602080910402602001604051908101604052809291908181526020018280546105ec90611df5565b80156106395780601f1061060e57610100808354040283529160200191610639565b820191906000526020600020905b81548152906001019060200180831161061c57829003601f168201915b50505050509150600360008673ffffffffffffffffffffffffffffffffffffffff1673ffffffffffffffffffffffffffffffffffffffff16815260200190815260200160002060040160009054906101000a900473ffffffffffffffffffffffffffffffffffffffff1690509193509193565b60015481565b60056020528060005260406000206000915090508060010154908060020180546106db90611df5565b80601f016020809104026020016040519081016040528092919081815260200182805461070790611df5565b80156107545780601f1061072957610100808354040283529160200191610754565b820191906000526020600020905b81548152906001019060200180831161073757829003601f168201915b50505050509080600301805461076990611df5565b80601f016020809104026020016040519081016040528092919081815260200182805461079590611df5565b80156107e25780601f106107b7576101008083540402835291602001916107e2565b820191906000526020600020905b8154815290600101906020018083116107c557829003601f168201915b5050505050905083565b600a81815481106107fc57600080fd5b906000526020600020016000915090505481565b600033600360008273ffffffffffffffffffffffffffffffffffffffff1673ffffffffffffffffffffffffffffffffffffffff16815260200190815260200160002060040160009054906101000a900473ffffffffffffffffffffffffffffffffffffffff1673ffffffffffffffffffffffffffffffffffffffff163373ffffffffffffffffffffffffffffffffffffffff16146108e3576040517f08c379a00000000000000000000000000000000000000000000000000000000081526004016108da90611e99565b60405180910390fd5b600a8590806001815401808255809150506001900390600052602060002001600090919091909150556001600a8054905061091e9190611ee8565b6009600087815260200190815260200160002060000181905550836009600087815260200190815260200160002060010160006101000a81548173ffffffffffffffffffffffffffffffffffffffff021916908373ffffffffffffffffffffffffffffffffffffffff160217905550336009600087815260200190815260200160002060020160006101000a81548173ffffffffffffffffffffffffffffffffffffffff021916908373ffffffffffffffffffffffffffffffffffffffff16021790555082600960008781526020019081526020016000206004019080519060200190610a0c9291906116c7565b5082604051610a1b9190611f58565b60405180910390207f7d42fd865b33985ad777dadd7f520bbea3545b55302acd08b1b96747ff826e5a60405160405180910390a260019150509392505050565b60076020528060005260406000206000915090508060010154908060020160009054906101000a900473ffffffffffffffffffffffffffffffffffffffff1690806003018054610aaa90611df5565b80601f0160208091040260200160405190810160405280929190818152602001828054610ad690611df5565b8015610b235780601f10610af857610100808354040283529160200191610b23565b820191906000526020600020905b815481529060010190602001808311610b0657829003601f168201915b505050505090806004018054610b3890611df5565b80601f0160208091040260200160405190810160405280929190818152602001828054610b6490611df5565b8015610bb15780601f10610b8657610100808354040283529160200191610bb1565b820191906000526020600020905b815481529060010190602001808311610b9457829003601f168201915b5050505050905084565b60088181548110610bcb57600080fd5b906000526020600020016000915090505481565b60006006339080600181540180825580915050600190039060005260206000200160009091909190916101000a81548173ffffffffffffffffffffffffffffffffffffffff021916908373ffffffffffffffffffffffffffffffffffffffff1602179055506001600680549050610c569190611ee8565b600560003373ffffffffffffffffffffffffffffffffffffffff1673ffffffffffffffffffffffffffffffffffffffff1681526020019081526020016000206001018190555082600560003373ffffffffffffffffffffffffffffffffffffffff1673ffffffffffffffffffffffffffffffffffffffff1681526020019081526020016000206002019080519060200190610cf29291906116c7565b5081600560003373ffffffffffffffffffffffffffffffffffffffff1673ffffffffffffffffffffffffffffffffffffffff1681526020019081526020016000206003019080519060200190610d499291906116c7565b5081604051610d589190611f58565b604051809103902083604051610d6e9190611f58565b60405180910390203373ffffffffffffffffffffffffffffffffffffffff167f21e9a3f86855daeaebba0a21a02bff568229295ab42ee0fa2749357c04d9147060405160405180910390a46001905092915050565b60068181548110610dd357600080fd5b906000526020600020016000915054906101000a900473ffffffffffffffffffffffffffffffffffffffff1681565b6000806000806060600960008781526020019081526020016000206000015494506009600087815260200190815260200160002060010160009054906101000a900473ffffffffffffffffffffffffffffffffffffffff1693506009600087815260200190815260200160002060020160009054906101000a900473ffffffffffffffffffffffffffffffffffffffff16925060096000878152602001908152602001600020600301549150600960008781526020019081526020016000206004018054610ecf90611df5565b80601f0160208091040260200160405190810160405280929190818152602001828054610efb90611df5565b8015610f485780601f10610f1d57610100808354040283529160200191610f48565b820191906000526020600020905b815481529060010190602001808311610f2b57829003601f168201915b5050505050905091939590929450565b600033600360008273ffffffffffffffffffffffffffffffffffffffff1673ffffffffffffffffffffffffffffffffffffffff16815260200190815260200160002060040160009054906101000a900473ffffffffffffffffffffffffffffffffffffffff1673ffffffffffffffffffffffffffffffffffffffff163373ffffffffffffffffffffffffffffffffffffffff161461102b576040517f08c379a000000000000000000000000000000000000000000000000000000000815260040161102290611e99565b60405180910390fd5b50919050565b60008054906101000a900473ffffffffffffffffffffffffffffffffffffffff1681565b6000606080600560008573ffffffffffffffffffffffffffffffffffffffff1673ffffffffffffffffffffffffffffffffffffffff168152602001908152602001600020600101549250600560008573ffffffffffffffffffffffffffffffffffffffff1673ffffffffffffffffffffffffffffffffffffffff16815260200190815260200160002060020180546110ec90611df5565b80601f016020809104026020016040519081016040528092919081815260200182805461111890611df5565b80156111655780601f1061113a57610100808354040283529160200191611165565b820191906000526020600020905b81548152906001019060200180831161114857829003601f168201915b50505050509150600560008573ffffffffffffffffffffffffffffffffffffffff1673ffffffffffffffffffffffffffffffffffffffff16815260200190815260200160002060030180546111b990611df5565b80601f01602080910402602001604051908101604052809291908181526020018280546111e590611df5565b80156112325780601f1061120757610100808354040283529160200191611232565b820191906000526020600020905b81548152906001019060200180831161121557829003601f168201915b505050505090509193909250565b60006004339080600181540180825580915050600190039060005260206000200160009091909190916101000a81548173ffffffffffffffffffffffffffffffffffffffff021916908373ffffffffffffffffffffffffffffffffffffffff16021790555060016004805490506112b79190611ee8565b600360003373ffffffffffffffffffffffffffffffffffffffff1673ffffffffffffffffffffffffffffffffffffffff1681526020019081526020016000206001018190555082600360003373ffffffffffffffffffffffffffffffffffffffff1673ffffffffffffffffffffffffffffffffffffffff16815260200190815260200160002060020190805190602001906113539291906116c7565b5081600360003373ffffffffffffffffffffffffffffffffffffffff1673ffffffffffffffffffffffffffffffffffffffff16815260200190815260200160002060030190805190602001906113aa9291906116c7565b50816040516113b99190611f58565b6040518091039020836040516113cf9190611f58565b60405180910390203373ffffffffffffffffffffffffffffffffffffffff167fd4479b94d8c09ad283cc8bdf1eb00e9134a3ab5c673a576c5f58632b739e9bf560405160405180910390a46001905092915050565b600360205280600052604060002060009150905080600101549080600201805461144d90611df5565b80601f016020809104026020016040519081016040528092919081815260200182805461147990611df5565b80156114c65780601f1061149b576101008083540402835291602001916114c6565b820191906000526020600020905b8154815290600101906020018083116114a957829003601f168201915b5050505050908060030180546114db90611df5565b80601f016020809104026020016040519081016040528092919081815260200182805461150790611df5565b80156115545780601f1061152957610100808354040283529160200191611554565b820191906000526020600020905b81548152906001019060200180831161153757829003601f168201915b5050505050908060040160009054906101000a900473ffffffffffffffffffffffffffffffffffffffff16905084565b6004818154811061159457600080fd5b906000526020600020016000915054906101000a900473ffffffffffffffffffffffffffffffffffffffff1681565b60025481565b60096020528060005260406000206000915090508060000154908060010160009054906101000a900473ffffffffffffffffffffffffffffffffffffffff16908060020160009054906101000a900473ffffffffffffffffffffffffffffffffffffffff169080600301549080600401805461164490611df5565b80601f016020809104026020016040519081016040528092919081815260200182805461167090611df5565b80156116bd5780601f10611692576101008083540402835291602001916116bd565b820191906000526020600020905b8154815290600101906020018083116116a057829003601f168201915b5050505050905085565b8280546116d390611df5565b90600052602060002090601f0160209004810192826116f5576000855561173c565b82601f1061170e57805160ff191683800117855561173c565b8280016001018555821561173c579182015b8281111561173b578251825591602001919060010190611720565b5b509050611749919061174d565b5090565b5b8082111561176657600081600090555060010161174e565b5090565b6000604051905090565b600080fd5b600080fd5b600073ffffffffffffffffffffffffffffffffffffffff82169050919050565b60006117a98261177e565b9050919050565b6117b98161179e565b81146117c457600080fd5b50565b6000813590506117d6816117b0565b92915050565b6000602082840312156117f2576117f1611774565b5b6000611800848285016117c7565b91505092915050565b6000819050919050565b61181c81611809565b82525050565b600081519050919050565b600082825260208201905092915050565b60005b8381101561185c578082015181840152602081019050611841565b8381111561186b576000848401525b50505050565b6000601f19601f8301169050919050565b600061188d82611822565b611897818561182d565b93506118a781856020860161183e565b6118b081611871565b840191505092915050565b6118c48161179e565b82525050565b60006080820190506118df6000830187611813565b81810360208301526118f18186611882565b905081810360408301526119058185611882565b905061191460608301846118bb565b95945050505050565b60006020820190506119326000830184611813565b92915050565b600060608201905061194d6000830186611813565b818103602083015261195f8185611882565b905081810360408301526119738184611882565b9050949350505050565b61198681611809565b811461199157600080fd5b50565b6000813590506119a38161197d565b92915050565b6000602082840312156119bf576119be611774565b5b60006119cd84828501611994565b91505092915050565b6000819050919050565b6119e9816119d6565b82525050565b6000602082019050611a0460008301846119e0565b92915050565b611a13816119d6565b8114611a1e57600080fd5b50565b600081359050611a3081611a0a565b92915050565b600080fd5b600080fd5b7f4e487b7100000000000000000000000000000000000000000000000000000000600052604160045260246000fd5b611a7882611871565b810181811067ffffffffffffffff82111715611a9757611a96611a40565b5b80604052505050565b6000611aaa61176a565b9050611ab68282611a6f565b919050565b600067ffffffffffffffff821115611ad657611ad5611a40565b5b611adf82611871565b9050602081019050919050565b82818337600083830152505050565b6000611b0e611b0984611abb565b611aa0565b905082815260208101848484011115611b2a57611b29611a3b565b5b611b35848285611aec565b509392505050565b600082601f830112611b5257611b51611a36565b5b8135611b62848260208601611afb565b91505092915050565b600080600060608486031215611b8457611b83611774565b5b6000611b9286828701611a21565b9350506020611ba3868287016117c7565b925050604084013567ffffffffffffffff811115611bc457611bc3611779565b5b611bd086828701611b3d565b9150509250925092565b60008115159050919050565b611bef81611bda565b82525050565b6000602082019050611c0a6000830184611be6565b92915050565b600060208284031215611c2657611c25611774565b5b6000611c3484828501611a21565b91505092915050565b6000608082019050611c526000830187611813565b611c5f60208301866118bb565b8181036040830152611c718185611882565b90508181036060830152611c858184611882565b905095945050505050565b60008060408385031215611ca757611ca6611774565b5b600083013567ffffffffffffffff811115611cc557611cc4611779565b5b611cd185828601611b3d565b925050602083013567ffffffffffffffff811115611cf257611cf1611779565b5b611cfe85828601611b3d565b9150509250929050565b6000602082019050611d1d60008301846118bb565b92915050565b600060a082019050611d386000830188611813565b611d4560208301876118bb565b611d5260408301866118bb565b611d5f60608301856119e0565b8181036080830152611d718184611882565b90509695505050505050565b600060208284031215611d9357611d92611774565b5b600082013567ffffffffffffffff811115611db157611db0611779565b5b611dbd84828501611b3d565b91505092915050565b7f4e487b7100000000000000000000000000000000000000000000000000000000600052602260045260246000fd5b60006002820490506001821680611e0d57607f821691505b60208210811415611e2157611e20611dc6565b5b50919050565b7f4d75737420626520746865207363686f6f6c20746f2063616c6c20746869732060008201527f66756e6374696f6e000000000000000000000000000000000000000000000000602082015250565b6000611e8360288361182d565b9150611e8e82611e27565b604082019050919050565b60006020820190508181036000830152611eb281611e76565b9050919050565b7f4e487b7100000000000000000000000000000000000000000000000000000000600052601160045260246000fd5b6000611ef382611809565b9150611efe83611809565b925082821015611f1157611f10611eb9565b5b828203905092915050565b600081905092915050565b6000611f3282611822565b611f3c8185611f1c565b9350611f4c81856020860161183e565b80840191505092915050565b6000611f648284611f27565b91508190509291505056fea2646970667358221220dc3efa3b3fb6678c72c82acccf96d78ca2c66e3ce7b24650d1c27e9fd725c4e264736f6c63430008090033",
  "immutableReferences": {},
  "source": "// SPDX-License-Identifier: MIT\r\npragma solidity ^0.8.9;\r\n\r\n// import \"./Users.sol\";\r\n\r\n// TODO add NatSpec for every parameters like below\r\n/// @title\r\n/// @author Sarem Eskandary\r\n/// @notice\r\n/// @dev\r\ncontract Certification {\r\n    ////////////////////   State variables   ////////////////////\r\n    address public owner;\r\n    uint256 public schoolCount;\r\n    uint256 public studentCount;\r\n    ////////////////////   events     ////////////////////\r\n    // event personAdded(User user);\r\n    event studentCreated(\r\n        address indexed sender,\r\n        string indexed name,\r\n        string indexed IPFShash\r\n    );\r\n    event schoolCreated(\r\n        address indexed sender,\r\n        string indexed name,\r\n        string indexed IPFShash\r\n    );\r\n    event certificateCreated(string indexed _courseName);\r\n    event courseCreated(address indexed sender);\r\n\r\n    ////////////////////   enums     ////////////////////\r\n    // enum ourseState {passed, inProgress}\r\n    ////////////////////   struct     ////////////////////\r\n    struct School {\r\n        bytes32[] certificateList;\r\n        uint256 certificatePointer;\r\n        string name;\r\n        string IPFShash; // additional info\r\n        address schoolOwner;\r\n    }\r\n    mapping(address => School) public schoolStruct;\r\n    address[] public schoolList;\r\n\r\n    struct Student {\r\n        bytes32[] certificateList;\r\n        uint256 certificatePointer;\r\n        string name;\r\n        string IPFShash; // additional info\r\n    }\r\n\r\n    mapping(address => Student) public studentListtruct;\r\n    address[] public studentList;\r\n\r\n    struct Course {\r\n        address[] studentList;\r\n        uint256 certificatePointer;\r\n        address schoolID;\r\n        string courseName;\r\n        string IPFShash; // additional info\r\n    }\r\n\r\n    mapping(bytes32 => Course) public courseStruct;\r\n    bytes32[] public courseList;\r\n\r\n    struct Certificate {\r\n        uint256 certificatePointer;\r\n        address studentID;\r\n        address schoolID;\r\n        bytes32 courseID;\r\n        string courseName;\r\n    }\r\n\r\n    mapping(bytes32 => Certificate) public certificateStruct;\r\n    bytes32[] public certificateList;\r\n\r\n    ////////////////////   modifiers  ////////////////////\r\n    modifier isOwner() {\r\n        require(msg.sender == owner, \"Must be the owner to call this function\");\r\n        _;\r\n    }\r\n    modifier verifyCaller(address _address) {\r\n        require(msg.sender == _address, \"Unrecognized caller\");\r\n        _;\r\n    }\r\n    modifier isSchool(address _schoolOwner) {\r\n        require(\r\n            msg.sender == schoolStruct[_schoolOwner].schoolOwner,\r\n            \"Must be the school to call this function\"\r\n        );\r\n        _;\r\n    }\r\n\r\n    /// @dev student should allow that how can see it's name or certificate\r\n    // modifier isPersonAllowed() {\r\n    //     require(personAllowed == true);\r\n    //     _;\r\n    // }\r\n\r\n    constructor() {}\r\n\r\n    /// @dev school should add student to the school list\r\n    function createStudent(string memory _name, string memory _IPFShash)\r\n        public\r\n        returns (bool success)\r\n    {\r\n        studentList.push(msg.sender);\r\n        studentListtruct[msg.sender].certificatePointer = studentList.length - 1;\r\n        studentListtruct[msg.sender].name = _name;\r\n        studentListtruct[msg.sender].IPFShash = _IPFShash;\r\n\r\n        emit studentCreated(msg.sender, _name, _IPFShash);\r\n        return (true);\r\n    }\r\n\r\n    function createSchool(string memory _name, string memory _IPFShash)\r\n        public\r\n        returns (bool success)\r\n    {\r\n        schoolList.push(msg.sender);\r\n        schoolStruct[msg.sender].certificatePointer = schoolList.length - 1;\r\n        schoolStruct[msg.sender].name = _name;\r\n        schoolStruct[msg.sender].IPFShash = _IPFShash;\r\n\r\n        emit schoolCreated(msg.sender, _name, _IPFShash);\r\n        return (true);\r\n    }\r\n\r\n    function createCourse(string memory _name)\r\n        public\r\n        isSchool(msg.sender)\r\n        returns (bool success)\r\n    {\r\n\r\n    }\r\n\r\n    function createCertificate(\r\n        bytes32 _ID,\r\n        address _student,\r\n        string memory _courseName\r\n    ) public isSchool(msg.sender) returns (bool success) {\r\n        certificateList.push(_ID);\r\n        certificateStruct[_ID].certificatePointer = certificateList.length - 1;\r\n        certificateStruct[_ID].studentID = _student;\r\n        certificateStruct[_ID].schoolID = msg.sender;\r\n        certificateStruct[_ID].courseName = _courseName;\r\n\r\n        emit certificateCreated(_courseName);\r\n        return (true);\r\n    }\r\n\r\n    function fetchSchool(address _schoolAddress)\r\n        public\r\n        view\r\n        returns (\r\n            uint256 certificatePointer,\r\n            string memory name,\r\n            string memory IPFShash,\r\n            address schoolOwner\r\n        )\r\n    {\r\n        certificatePointer = schoolStruct[_schoolAddress].certificatePointer;\r\n        name = schoolStruct[_schoolAddress].name;\r\n        IPFShash = schoolStruct[_schoolAddress].IPFShash;\r\n        schoolOwner = schoolStruct[_schoolAddress].schoolOwner;\r\n        return (certificatePointer, name, IPFShash, schoolOwner);\r\n    }\r\n\r\n    function fetchStudent(address _studentAddress)\r\n        public\r\n        view\r\n        returns (\r\n            uint256 certificatePointer,\r\n            string memory name,\r\n            string memory IPFShash\r\n        )\r\n    {\r\n        certificatePointer = studentListtruct[_studentAddress].certificatePointer;\r\n        name = studentListtruct[_studentAddress].name;\r\n        IPFShash = studentListtruct[_studentAddress].IPFShash;\r\n        return (certificatePointer, name, IPFShash);\r\n    }\r\n\r\n    function fetchCertificate(bytes32 _certificate)\r\n        public\r\n        view\r\n        returns (\r\n            uint256 certificatePointer,\r\n            address studentID,\r\n            address schoolID,\r\n            bytes32 courseID,\r\n            string memory courseName\r\n        )\r\n    {\r\n        certificatePointer = certificateStruct[_certificate].certificatePointer;\r\n        studentID = certificateStruct[_certificate].studentID;\r\n        schoolID = certificateStruct[_certificate].schoolID;\r\n        courseID = certificateStruct[_certificate].courseID;\r\n        courseName = certificateStruct[_certificate].courseName;\r\n        return (certificatePointer, studentID, schoolID, courseID,courseName);\r\n    }\r\n}\r\n",
  "sourcePath": "D:\\preject\\solidity-code\\blockchain-developer-bootcamp-final-project\\contracts\\Certifiction.sol",
  "compiler": {
    "name": "solc",
    "version": "0.8.9+commit.e5eed63a.Emscripten.clang"
  },
  "schemaVersion": "3.4.3",
  "updatedAt": "2021-11-29T17:55:04.555Z",
  "networkType": "ethereum",
  "devdoc": {
    "kind": "dev",
    "methods": {
      "constructor": {
        "details": "student should allow that how can see it's name or certificate"
      },
      "createStudent(string,string)": {
        "details": "school should add student to the school list"
      }
    },
    "title": "@author Sarem Eskandary",
    "version": 1
  },
  "userdoc": {
    "kind": "user",
    "methods": {},
    "notice": "@dev",
    "version": 1
  }
}