{
  "contractName": "Certification",
  "abi": [
    {
      "anonymous": false,
      "inputs": [
        {
          "indexed": true,
          "internalType": "string",
          "name": "_courseName",
          "type": "string"
        }
      ],
      "name": "certificateCreated",
      "type": "event"
    },
    {
      "anonymous": false,
      "inputs": [
        {
          "indexed": true,
          "internalType": "address",
          "name": "sender",
          "type": "address"
        }
      ],
      "name": "courseCreated",
      "type": "event"
    },
    {
      "anonymous": false,
      "inputs": [
        {
          "indexed": true,
          "internalType": "address",
          "name": "sender",
          "type": "address"
        },
        {
          "indexed": true,
          "internalType": "string",
          "name": "name",
          "type": "string"
        },
        {
          "indexed": true,
          "internalType": "string",
          "name": "IPFShash",
          "type": "string"
        }
      ],
      "name": "schoolCreated",
      "type": "event"
    },
    {
      "anonymous": false,
      "inputs": [
        {
          "indexed": true,
          "internalType": "address",
          "name": "sender",
          "type": "address"
        },
        {
          "indexed": true,
          "internalType": "string",
          "name": "name",
          "type": "string"
        },
        {
          "indexed": true,
          "internalType": "string",
          "name": "IPFShash",
          "type": "string"
        }
      ],
      "name": "studentCreated",
      "type": "event"
    },
    {
      "inputs": [
        {
          "internalType": "uint256",
          "name": "",
          "type": "uint256"
        }
      ],
      "name": "certificateList",
      "outputs": [
        {
          "internalType": "bytes32",
          "name": "",
          "type": "bytes32"
        }
      ],
      "stateMutability": "view",
      "type": "function",
      "constant": true
    },
    {
      "inputs": [
        {
          "internalType": "bytes32",
          "name": "",
          "type": "bytes32"
        }
      ],
      "name": "certificateStruct",
      "outputs": [
        {
          "internalType": "uint256",
          "name": "certificatePointer",
          "type": "uint256"
        },
        {
          "internalType": "address",
          "name": "studentID",
          "type": "address"
        },
        {
          "internalType": "address",
          "name": "schoolID",
          "type": "address"
        },
        {
          "internalType": "bytes32",
          "name": "courseID",
          "type": "bytes32"
        },
        {
          "internalType": "string",
          "name": "courseName",
          "type": "string"
        }
      ],
      "stateMutability": "view",
      "type": "function",
      "constant": true
    },
    {
      "inputs": [
        {
          "internalType": "uint256",
          "name": "",
          "type": "uint256"
        }
      ],
      "name": "courseList",
      "outputs": [
        {
          "internalType": "bytes32",
          "name": "",
          "type": "bytes32"
        }
      ],
      "stateMutability": "view",
      "type": "function",
      "constant": true
    },
    {
      "inputs": [
        {
          "internalType": "bytes32",
          "name": "",
          "type": "bytes32"
        }
      ],
      "name": "courseStruct",
      "outputs": [
        {
          "internalType": "uint256",
          "name": "coursePointer",
          "type": "uint256"
        },
        {
          "internalType": "address",
          "name": "studentID",
          "type": "address"
        },
        {
          "internalType": "address",
          "name": "schoolID",
          "type": "address"
        },
        {
          "internalType": "string",
          "name": "courseName",
          "type": "string"
        },
        {
          "internalType": "string",
          "name": "IPFShash",
          "type": "string"
        }
      ],
      "stateMutability": "view",
      "type": "function",
      "constant": true
    },
    {
      "inputs": [
        {
          "internalType": "uint256",
          "name": "",
          "type": "uint256"
        }
      ],
      "name": "schoolList",
      "outputs": [
        {
          "internalType": "address",
          "name": "",
          "type": "address"
        }
      ],
      "stateMutability": "view",
      "type": "function",
      "constant": true
    },
    {
      "inputs": [
        {
          "internalType": "address",
          "name": "",
          "type": "address"
        }
      ],
      "name": "schoolStruct",
      "outputs": [
        {
          "internalType": "uint256",
          "name": "certificatePointer",
          "type": "uint256"
        },
        {
          "internalType": "string",
          "name": "name",
          "type": "string"
        },
        {
          "internalType": "string",
          "name": "IPFShash",
          "type": "string"
        },
        {
          "internalType": "address",
          "name": "schoolOwner",
          "type": "address"
        }
      ],
      "stateMutability": "view",
      "type": "function",
      "constant": true
    },
    {
      "inputs": [
        {
          "internalType": "uint256",
          "name": "",
          "type": "uint256"
        }
      ],
      "name": "studentList",
      "outputs": [
        {
          "internalType": "address",
          "name": "",
          "type": "address"
        }
      ],
      "stateMutability": "view",
      "type": "function",
      "constant": true
    },
    {
      "inputs": [
        {
          "internalType": "address",
          "name": "",
          "type": "address"
        }
      ],
      "name": "studentListtruct",
      "outputs": [
        {
          "internalType": "uint256",
          "name": "certificatePointer",
          "type": "uint256"
        },
        {
          "internalType": "string",
          "name": "name",
          "type": "string"
        },
        {
          "internalType": "string",
          "name": "IPFShash",
          "type": "string"
        }
      ],
      "stateMutability": "view",
      "type": "function",
      "constant": true
    },
    {
      "inputs": [
        {
          "internalType": "string",
          "name": "_name",
          "type": "string"
        },
        {
          "internalType": "string",
          "name": "_IPFShash",
          "type": "string"
        }
      ],
      "name": "createStudent",
      "outputs": [
        {
          "internalType": "bool",
          "name": "success",
          "type": "bool"
        }
      ],
      "stateMutability": "nonpayable",
      "type": "function"
    },
    {
      "inputs": [
        {
          "internalType": "string",
          "name": "_name",
          "type": "string"
        },
        {
          "internalType": "string",
          "name": "_IPFShash",
          "type": "string"
        }
      ],
      "name": "createSchool",
      "outputs": [
        {
          "internalType": "bool",
          "name": "success",
          "type": "bool"
        }
      ],
      "stateMutability": "nonpayable",
      "type": "function"
    },
    {
      "inputs": [
        {
          "internalType": "bytes32",
          "name": "_ID",
          "type": "bytes32"
        },
        {
          "internalType": "address",
          "name": "_student",
          "type": "address"
        },
        {
          "internalType": "string",
          "name": "_courseName",
          "type": "string"
        },
        {
          "internalType": "string",
          "name": "_IPFShash",
          "type": "string"
        }
      ],
      "name": "createCourse",
      "outputs": [
        {
          "internalType": "bool",
          "name": "success",
          "type": "bool"
        }
      ],
      "stateMutability": "nonpayable",
      "type": "function"
    },
    {
      "inputs": [
        {
          "internalType": "bytes32",
          "name": "_ID",
          "type": "bytes32"
        },
        {
          "internalType": "address",
          "name": "_student",
          "type": "address"
        },
        {
          "internalType": "string",
          "name": "_courseName",
          "type": "string"
        }
      ],
      "name": "createCertificate",
      "outputs": [
        {
          "internalType": "bool",
          "name": "success",
          "type": "bool"
        }
      ],
      "stateMutability": "nonpayable",
      "type": "function"
    },
    {
      "inputs": [
        {
          "internalType": "address",
          "name": "_schoolAddress",
          "type": "address"
        }
      ],
      "name": "fetchSchool",
      "outputs": [
        {
          "internalType": "uint256",
          "name": "certificatePointer",
          "type": "uint256"
        },
        {
          "internalType": "string",
          "name": "name",
          "type": "string"
        },
        {
          "internalType": "string",
          "name": "IPFShash",
          "type": "string"
        },
        {
          "internalType": "address",
          "name": "schoolOwner",
          "type": "address"
        }
      ],
      "stateMutability": "view",
      "type": "function",
      "constant": true
    },
    {
      "inputs": [
        {
          "internalType": "address",
          "name": "_studentAddress",
          "type": "address"
        }
      ],
      "name": "fetchStudent",
      "outputs": [
        {
          "internalType": "uint256",
          "name": "certificatePointer",
          "type": "uint256"
        },
        {
          "internalType": "string",
          "name": "name",
          "type": "string"
        },
        {
          "internalType": "string",
          "name": "IPFShash",
          "type": "string"
        }
      ],
      "stateMutability": "view",
      "type": "function",
      "constant": true
    },
    {
      "inputs": [
        {
          "internalType": "bytes32",
          "name": "_course",
          "type": "bytes32"
        }
      ],
      "name": "fetchCourse",
      "outputs": [
        {
          "internalType": "uint256",
          "name": "coursePointer",
          "type": "uint256"
        },
        {
          "internalType": "address",
          "name": "studentID",
          "type": "address"
        },
        {
          "internalType": "address",
          "name": "schoolID",
          "type": "address"
        },
        {
          "internalType": "string",
          "name": "courseName",
          "type": "string"
        },
        {
          "internalType": "string",
          "name": "IPFShash",
          "type": "string"
        }
      ],
      "stateMutability": "view",
      "type": "function",
      "constant": true
    },
    {
      "inputs": [
        {
          "internalType": "bytes32",
          "name": "_certificate",
          "type": "bytes32"
        }
      ],
      "name": "fetchCertificate",
      "outputs": [
        {
          "internalType": "uint256",
          "name": "certificatePointer",
          "type": "uint256"
        },
        {
          "internalType": "address",
          "name": "studentID",
          "type": "address"
        },
        {
          "internalType": "address",
          "name": "schoolID",
          "type": "address"
        },
        {
          "internalType": "bytes32",
          "name": "courseID",
          "type": "bytes32"
        },
        {
          "internalType": "string",
          "name": "courseName",
          "type": "string"
        }
      ],
      "stateMutability": "view",
      "type": "function",
      "constant": true
    }
  ],
  "bytecode": "0x608060405234801561001057600080fd5b50612349806100206000396000f3fe608060405234801561001057600080fd5b50600436106101005760003560e01c8063877c2a2511610097578063cfa2099111610066578063cfa2099114610356578063d8ec1ca914610389578063db89f1c4146103bb578063f2d6e43f146103eb57610100565b8063877c2a2514610290578063930a8470146102c4578063a423f92e146102f4578063a9a817f61461032657610100565b806360a0bdda116100d357806360a0bdda146101cc5780637c91772a146101fc5780637df221e91461022c578063864ed44d1461025c57610100565b806309abaa2c146101055780633ca03fcc14610138578063559f10c91461016857806356963b8914610198575b600080fd5b61011f600480360381019061011a9190611b37565b61041f565b60405161012f9493929190611c25565b60405180910390f35b610152600480360381019061014d9190611ca4565b61066d565b60405161015f9190611cea565b60405180910390f35b610182600480360381019061017d9190611e66565b610691565b60405161018f9190611ef0565b60405180910390f35b6101b260048036038101906101ad9190611f0b565b6108db565b6040516101c3959493929190611f38565b60405180910390f35b6101e660048036038101906101e19190611ca4565b610a61565b6040516101f39190611cea565b60405180910390f35b61021660048036038101906102119190611f99565b610a85565b6040516102239190611ef0565b60405180910390f35b61024660048036038101906102419190611ca4565b610c69565b6040516102539190612011565b60405180910390f35b61027660048036038101906102719190611f0b565b610ca8565b60405161028795949392919061202c565b60405180910390f35b6102aa60048036038101906102a59190611f0b565b610de5565b6040516102bb959493929190611f38565b60405180910390f35b6102de60048036038101906102d99190612086565b610f8a565b6040516102eb9190611ef0565b60405180910390f35b61030e60048036038101906103099190611b37565b611200565b60405161031d93929190612125565b60405180910390f35b610340600480360381019061033b9190611f99565b6113eb565b60405161034d9190611ef0565b60405180910390f35b610370600480360381019061036b9190611b37565b61164b565b6040516103809493929190611c25565b60405180910390f35b6103a3600480360381019061039e9190611b37565b6117ab565b6040516103b293929190612125565b60405180910390f35b6103d560048036038101906103d09190611ca4565b6118e5565b6040516103e29190612011565b60405180910390f35b61040560048036038101906104009190611f0b565b611924565b60405161041695949392919061202c565b60405180910390f35b600060608060008060008673ffffffffffffffffffffffffffffffffffffffff1673ffffffffffffffffffffffffffffffffffffffff1681526020019081526020016000206001015493506000808673ffffffffffffffffffffffffffffffffffffffff1673ffffffffffffffffffffffffffffffffffffffff16815260200190815260200160002060020180546104b690612199565b80601f01602080910402602001604051908101604052809291908181526020018280546104e290612199565b801561052f5780601f106105045761010080835404028352916020019161052f565b820191906000526020600020905b81548152906001019060200180831161051257829003601f168201915b505050505092506000808673ffffffffffffffffffffffffffffffffffffffff1673ffffffffffffffffffffffffffffffffffffffff168152602001908152602001600020600301805461058290612199565b80601f01602080910402602001604051908101604052809291908181526020018280546105ae90612199565b80156105fb5780601f106105d0576101008083540402835291602001916105fb565b820191906000526020600020905b8154815290600101906020018083116105de57829003601f168201915b505050505091506000808673ffffffffffffffffffffffffffffffffffffffff1673ffffffffffffffffffffffffffffffffffffffff16815260200190815260200160002060040160009054906101000a900473ffffffffffffffffffffffffffffffffffffffff1690509193509193565b6007818154811061067d57600080fd5b906000526020600020016000915090505481565b6000336000808273ffffffffffffffffffffffffffffffffffffffff1673ffffffffffffffffffffffffffffffffffffffff16815260200190815260200160002060040160009054906101000a900473ffffffffffffffffffffffffffffffffffffffff1673ffffffffffffffffffffffffffffffffffffffff163373ffffffffffffffffffffffffffffffffffffffff1614610763576040517f08c379a000000000000000000000000000000000000000000000000000000000815260040161075a9061223d565b60405180910390fd5b6007859080600181540180825580915050600190039060005260206000200160009091909190915055600160078054905061079e919061228c565b6006600087815260200190815260200160002060000181905550836006600087815260200190815260200160002060010160006101000a81548173ffffffffffffffffffffffffffffffffffffffff021916908373ffffffffffffffffffffffffffffffffffffffff160217905550336006600087815260200190815260200160002060020160006101000a81548173ffffffffffffffffffffffffffffffffffffffff021916908373ffffffffffffffffffffffffffffffffffffffff1602179055508260066000878152602001908152602001600020600401908051906020019061088c929190611a22565b508260405161089b91906122fc565b60405180910390207f7d42fd865b33985ad777dadd7f520bbea3545b55302acd08b1b96747ff826e5a60405160405180910390a260019150509392505050565b60046020528060005260406000206000915090508060000154908060010160009054906101000a900473ffffffffffffffffffffffffffffffffffffffff16908060020160009054906101000a900473ffffffffffffffffffffffffffffffffffffffff169080600301805461095090612199565b80601f016020809104026020016040519081016040528092919081815260200182805461097c90612199565b80156109c95780601f1061099e576101008083540402835291602001916109c9565b820191906000526020600020905b8154815290600101906020018083116109ac57829003601f168201915b5050505050908060040180546109de90612199565b80601f0160208091040260200160405190810160405280929190818152602001828054610a0a90612199565b8015610a575780601f10610a2c57610100808354040283529160200191610a57565b820191906000526020600020905b815481529060010190602001808311610a3a57829003601f168201915b5050505050905085565b60058181548110610a7157600080fd5b906000526020600020016000915090505481565b60006003339080600181540180825580915050600190039060005260206000200160009091909190916101000a81548173ffffffffffffffffffffffffffffffffffffffff021916908373ffffffffffffffffffffffffffffffffffffffff1602179055506001600380549050610afc919061228c565b600260003373ffffffffffffffffffffffffffffffffffffffff1673ffffffffffffffffffffffffffffffffffffffff1681526020019081526020016000206001018190555082600260003373ffffffffffffffffffffffffffffffffffffffff1673ffffffffffffffffffffffffffffffffffffffff1681526020019081526020016000206002019080519060200190610b98929190611a22565b5081600260003373ffffffffffffffffffffffffffffffffffffffff1673ffffffffffffffffffffffffffffffffffffffff1681526020019081526020016000206003019080519060200190610bef929190611a22565b5081604051610bfe91906122fc565b604051809103902083604051610c1491906122fc565b60405180910390203373ffffffffffffffffffffffffffffffffffffffff167f21e9a3f86855daeaebba0a21a02bff568229295ab42ee0fa2749357c04d9147060405160405180910390a46001905092915050565b60038181548110610c7957600080fd5b906000526020600020016000915054906101000a900473ffffffffffffffffffffffffffffffffffffffff1681565b6000806000806060600660008781526020019081526020016000206000015494506006600087815260200190815260200160002060010160009054906101000a900473ffffffffffffffffffffffffffffffffffffffff1693506006600087815260200190815260200160002060020160009054906101000a900473ffffffffffffffffffffffffffffffffffffffff169250600660008781526020019081526020016000206004018054610d5c90612199565b80601f0160208091040260200160405190810160405280929190818152602001828054610d8890612199565b8015610dd55780601f10610daa57610100808354040283529160200191610dd5565b820191906000526020600020905b815481529060010190602001808311610db857829003601f168201915b5050505050905091939590929450565b6000806000606080600460008781526020019081526020016000206000015494506004600087815260200190815260200160002060020160009054906101000a900473ffffffffffffffffffffffffffffffffffffffff169250600460008781526020019081526020016000206003018054610e6090612199565b80601f0160208091040260200160405190810160405280929190818152602001828054610e8c90612199565b8015610ed95780601f10610eae57610100808354040283529160200191610ed9565b820191906000526020600020905b815481529060010190602001808311610ebc57829003601f168201915b50505050509150600460008781526020019081526020016000206004018054610f0190612199565b80601f0160208091040260200160405190810160405280929190818152602001828054610f2d90612199565b8015610f7a5780601f10610f4f57610100808354040283529160200191610f7a565b820191906000526020600020905b815481529060010190602001808311610f5d57829003601f168201915b5050505050905091939590929450565b6000336000808273ffffffffffffffffffffffffffffffffffffffff1673ffffffffffffffffffffffffffffffffffffffff16815260200190815260200160002060040160009054906101000a900473ffffffffffffffffffffffffffffffffffffffff1673ffffffffffffffffffffffffffffffffffffffff163373ffffffffffffffffffffffffffffffffffffffff161461105c576040517f08c379a00000000000000000000000000000000000000000000000000000000081526004016110539061223d565b60405180910390fd5b60058690806001815401808255809150506001900390600052602060002001600090919091909150556001600580549050611097919061228c565b6004600088815260200190815260200160002060000181905550846004600088815260200190815260200160002060010160006101000a81548173ffffffffffffffffffffffffffffffffffffffff021916908373ffffffffffffffffffffffffffffffffffffffff160217905550336004600088815260200190815260200160002060020160006101000a81548173ffffffffffffffffffffffffffffffffffffffff021916908373ffffffffffffffffffffffffffffffffffffffff16021790555083600460008881526020019081526020016000206003019080519060200190611185929190611a22565b50826004600088815260200190815260200160002060040190805190602001906111b0929190611a22565b50836040516111bf91906122fc565b60405180910390207f7d42fd865b33985ad777dadd7f520bbea3545b55302acd08b1b96747ff826e5a60405160405180910390a26001915050949350505050565b6000606080600260008573ffffffffffffffffffffffffffffffffffffffff1673ffffffffffffffffffffffffffffffffffffffff168152602001908152602001600020600101549250600260008573ffffffffffffffffffffffffffffffffffffffff1673ffffffffffffffffffffffffffffffffffffffff168152602001908152602001600020600201805461129790612199565b80601f01602080910402602001604051908101604052809291908181526020018280546112c390612199565b80156113105780601f106112e557610100808354040283529160200191611310565b820191906000526020600020905b8154815290600101906020018083116112f357829003601f168201915b50505050509150600260008573ffffffffffffffffffffffffffffffffffffffff1673ffffffffffffffffffffffffffffffffffffffff168152602001908152602001600020600301805461136490612199565b80601f016020809104026020016040519081016040528092919081815260200182805461139090612199565b80156113dd5780601f106113b2576101008083540402835291602001916113dd565b820191906000526020600020905b8154815290600101906020018083116113c057829003601f168201915b505050505090509193909250565b60006001339080600181540180825580915050600190039060005260206000200160009091909190916101000a81548173ffffffffffffffffffffffffffffffffffffffff021916908373ffffffffffffffffffffffffffffffffffffffff16021790555060018080549050611461919061228c565b6000803373ffffffffffffffffffffffffffffffffffffffff1673ffffffffffffffffffffffffffffffffffffffff16815260200190815260200160002060010181905550826000803373ffffffffffffffffffffffffffffffffffffffff1673ffffffffffffffffffffffffffffffffffffffff16815260200190815260200160002060020190805190602001906114fb929190611a22565b50816000803373ffffffffffffffffffffffffffffffffffffffff1673ffffffffffffffffffffffffffffffffffffffff1681526020019081526020016000206003019080519060200190611551929190611a22565b50336000803373ffffffffffffffffffffffffffffffffffffffff1673ffffffffffffffffffffffffffffffffffffffff16815260200190815260200160002060040160006101000a81548173ffffffffffffffffffffffffffffffffffffffff021916908373ffffffffffffffffffffffffffffffffffffffff160217905550816040516115e091906122fc565b6040518091039020836040516115f691906122fc565b60405180910390203373ffffffffffffffffffffffffffffffffffffffff167fd4479b94d8c09ad283cc8bdf1eb00e9134a3ab5c673a576c5f58632b739e9bf560405160405180910390a46001905092915050565b600060205280600052604060002060009150905080600101549080600201805461167490612199565b80601f01602080910402602001604051908101604052809291908181526020018280546116a090612199565b80156116ed5780601f106116c2576101008083540402835291602001916116ed565b820191906000526020600020905b8154815290600101906020018083116116d057829003601f168201915b50505050509080600301805461170290612199565b80601f016020809104026020016040519081016040528092919081815260200182805461172e90612199565b801561177b5780601f106117505761010080835404028352916020019161177b565b820191906000526020600020905b81548152906001019060200180831161175e57829003601f168201915b5050505050908060040160009054906101000a900473ffffffffffffffffffffffffffffffffffffffff16905084565b60026020528060005260406000206000915090508060010154908060020180546117d490612199565b80601f016020809104026020016040519081016040528092919081815260200182805461180090612199565b801561184d5780601f106118225761010080835404028352916020019161184d565b820191906000526020600020905b81548152906001019060200180831161183057829003601f168201915b50505050509080600301805461186290612199565b80601f016020809104026020016040519081016040528092919081815260200182805461188e90612199565b80156118db5780601f106118b0576101008083540402835291602001916118db565b820191906000526020600020905b8154815290600101906020018083116118be57829003601f168201915b5050505050905083565b600181815481106118f557600080fd5b906000526020600020016000915054906101000a900473ffffffffffffffffffffffffffffffffffffffff1681565b60066020528060005260406000206000915090508060000154908060010160009054906101000a900473ffffffffffffffffffffffffffffffffffffffff16908060020160009054906101000a900473ffffffffffffffffffffffffffffffffffffffff169080600301549080600401805461199f90612199565b80601f01602080910402602001604051908101604052809291908181526020018280546119cb90612199565b8015611a185780601f106119ed57610100808354040283529160200191611a18565b820191906000526020600020905b8154815290600101906020018083116119fb57829003601f168201915b5050505050905085565b828054611a2e90612199565b90600052602060002090601f016020900481019282611a505760008555611a97565b82601f10611a6957805160ff1916838001178555611a97565b82800160010185558215611a97579182015b82811115611a96578251825591602001919060010190611a7b565b5b509050611aa49190611aa8565b5090565b5b80821115611ac1576000816000905550600101611aa9565b5090565b6000604051905090565b600080fd5b600080fd5b600073ffffffffffffffffffffffffffffffffffffffff82169050919050565b6000611b0482611ad9565b9050919050565b611b1481611af9565b8114611b1f57600080fd5b50565b600081359050611b3181611b0b565b92915050565b600060208284031215611b4d57611b4c611acf565b5b6000611b5b84828501611b22565b91505092915050565b6000819050919050565b611b7781611b64565b82525050565b600081519050919050565b600082825260208201905092915050565b60005b83811015611bb7578082015181840152602081019050611b9c565b83811115611bc6576000848401525b50505050565b6000601f19601f8301169050919050565b6000611be882611b7d565b611bf28185611b88565b9350611c02818560208601611b99565b611c0b81611bcc565b840191505092915050565b611c1f81611af9565b82525050565b6000608082019050611c3a6000830187611b6e565b8181036020830152611c4c8186611bdd565b90508181036040830152611c608185611bdd565b9050611c6f6060830184611c16565b95945050505050565b611c8181611b64565b8114611c8c57600080fd5b50565b600081359050611c9e81611c78565b92915050565b600060208284031215611cba57611cb9611acf565b5b6000611cc884828501611c8f565b91505092915050565b6000819050919050565b611ce481611cd1565b82525050565b6000602082019050611cff6000830184611cdb565b92915050565b611d0e81611cd1565b8114611d1957600080fd5b50565b600081359050611d2b81611d05565b92915050565b600080fd5b600080fd5b7f4e487b7100000000000000000000000000000000000000000000000000000000600052604160045260246000fd5b611d7382611bcc565b810181811067ffffffffffffffff82111715611d9257611d91611d3b565b5b80604052505050565b6000611da5611ac5565b9050611db18282611d6a565b919050565b600067ffffffffffffffff821115611dd157611dd0611d3b565b5b611dda82611bcc565b9050602081019050919050565b82818337600083830152505050565b6000611e09611e0484611db6565b611d9b565b905082815260208101848484011115611e2557611e24611d36565b5b611e30848285611de7565b509392505050565b600082601f830112611e4d57611e4c611d31565b5b8135611e5d848260208601611df6565b91505092915050565b600080600060608486031215611e7f57611e7e611acf565b5b6000611e8d86828701611d1c565b9350506020611e9e86828701611b22565b925050604084013567ffffffffffffffff811115611ebf57611ebe611ad4565b5b611ecb86828701611e38565b9150509250925092565b60008115159050919050565b611eea81611ed5565b82525050565b6000602082019050611f056000830184611ee1565b92915050565b600060208284031215611f2157611f20611acf565b5b6000611f2f84828501611d1c565b91505092915050565b600060a082019050611f4d6000830188611b6e565b611f5a6020830187611c16565b611f676040830186611c16565b8181036060830152611f798185611bdd565b90508181036080830152611f8d8184611bdd565b90509695505050505050565b60008060408385031215611fb057611faf611acf565b5b600083013567ffffffffffffffff811115611fce57611fcd611ad4565b5b611fda85828601611e38565b925050602083013567ffffffffffffffff811115611ffb57611ffa611ad4565b5b61200785828601611e38565b9150509250929050565b60006020820190506120266000830184611c16565b92915050565b600060a0820190506120416000830188611b6e565b61204e6020830187611c16565b61205b6040830186611c16565b6120686060830185611cdb565b818103608083015261207a8184611bdd565b90509695505050505050565b600080600080608085870312156120a05761209f611acf565b5b60006120ae87828801611d1c565b94505060206120bf87828801611b22565b935050604085013567ffffffffffffffff8111156120e0576120df611ad4565b5b6120ec87828801611e38565b925050606085013567ffffffffffffffff81111561210d5761210c611ad4565b5b61211987828801611e38565b91505092959194509250565b600060608201905061213a6000830186611b6e565b818103602083015261214c8185611bdd565b905081810360408301526121608184611bdd565b9050949350505050565b7f4e487b7100000000000000000000000000000000000000000000000000000000600052602260045260246000fd5b600060028204905060018216806121b157607f821691505b602082108114156121c5576121c461216a565b5b50919050565b7f4d75737420626520746865207363686f6f6c20746f2063616c6c20746869732060008201527f66756e6374696f6e000000000000000000000000000000000000000000000000602082015250565b6000612227602883611b88565b9150612232826121cb565b604082019050919050565b600060208201905081810360008301526122568161221a565b9050919050565b7f4e487b7100000000000000000000000000000000000000000000000000000000600052601160045260246000fd5b600061229782611b64565b91506122a283611b64565b9250828210156122b5576122b461225d565b5b828203905092915050565b600081905092915050565b60006122d682611b7d565b6122e081856122c0565b93506122f0818560208601611b99565b80840191505092915050565b600061230882846122cb565b91508190509291505056fea26469706673582212205a6e99e35d661613d140e26b18fce07cd2508b835db2fde316c11aac657fc56364736f6c63430008090033",
  "immutableReferences": {},
  "source": "// SPDX-License-Identifier: MIT\r\npragma solidity ^0.8.9;\r\n\r\n// import \"./Users.sol\";\r\n\r\n// TODO add NatSpec for every parameters like below\r\n/// @title\r\n/// @author Sarem Eskandary\r\n/// @notice\r\n/// @dev\r\ncontract Certification {\r\n    ////////////////////   events     ////////////////////\r\n    // event personAdded(User user);\r\n    event studentCreated(\r\n        address indexed sender,\r\n        string indexed name,\r\n        string indexed IPFShash\r\n    );\r\n    event schoolCreated(\r\n        address indexed sender,\r\n        string indexed name,\r\n        string indexed IPFShash\r\n    );\r\n    event certificateCreated(string indexed _courseName);\r\n    event courseCreated(address indexed sender);\r\n\r\n    ////////////////////   enums     ////////////////////\r\n    // enum ourseState {passed, inProgress}\r\n    ////////////////////   struct     ////////////////////\r\n    struct School {\r\n        bytes32[] certificateList;\r\n        uint256 certificatePointer;\r\n        string name;\r\n        string IPFShash; // additional info\r\n        address schoolOwner;\r\n    }\r\n    mapping(address => School) public schoolStruct;\r\n    address[] public schoolList;\r\n\r\n    struct Student {\r\n        bytes32[] certificateList;\r\n        uint256 certificatePointer;\r\n        string name;\r\n        string IPFShash; // additional info\r\n    }\r\n\r\n    mapping(address => Student) public studentListtruct;\r\n    address[] public studentList;\r\n\r\n    struct Course {\r\n        uint256 coursePointer;\r\n        address studentID;\r\n        address schoolID;\r\n        string courseName;\r\n        string IPFShash; // additional info\r\n    }\r\n\r\n    mapping(bytes32 => Course) public courseStruct;\r\n    bytes32[] public courseList;\r\n\r\n    struct Certificate {\r\n        uint256 certificatePointer;\r\n        address studentID;\r\n        address schoolID;\r\n        bytes32 courseID;\r\n        string courseName;\r\n    }\r\n\r\n    mapping(bytes32 => Certificate) public certificateStruct;\r\n    bytes32[] public certificateList;\r\n\r\n    ////////////////////   modifiers  ////////////////////\r\n    modifier isSchool(address _schoolOwner) {\r\n        require(\r\n            msg.sender == schoolStruct[_schoolOwner].schoolOwner,\r\n            \"Must be the school to call this function\"\r\n        );\r\n        _;\r\n    }\r\n\r\n    /// @dev student should allow that how can see it's name or certificate\r\n    // modifier isPersonAllowed() {\r\n    //     require(personAllowed == true);\r\n    //     _;\r\n    // }\r\n\r\n    /// @dev school should add student to the school list\r\n    function createStudent(string memory _name, string memory _IPFShash)\r\n        public\r\n        returns (bool success)\r\n    {\r\n        studentList.push(msg.sender);\r\n        studentListtruct[msg.sender].certificatePointer =\r\n            studentList.length -\r\n            1;\r\n        studentListtruct[msg.sender].name = _name;\r\n        studentListtruct[msg.sender].IPFShash = _IPFShash;\r\n\r\n        emit studentCreated(msg.sender, _name, _IPFShash);\r\n        return (true);\r\n    }\r\n\r\n    function createSchool(string memory _name, string memory _IPFShash)\r\n        public\r\n        returns (bool success)\r\n    {\r\n        schoolList.push(msg.sender);\r\n        schoolStruct[msg.sender].certificatePointer = schoolList.length - 1;\r\n        schoolStruct[msg.sender].name = _name;\r\n        schoolStruct[msg.sender].IPFShash = _IPFShash;\r\n        schoolStruct[msg.sender].schoolOwner = msg.sender;\r\n\r\n        emit schoolCreated(msg.sender, _name, _IPFShash);\r\n        return (true);\r\n    }\r\n\r\n    function createCourse(\r\n        bytes32 _ID,\r\n        address _student,\r\n        string memory _courseName,\r\n        string memory _IPFShash\r\n    ) public isSchool(msg.sender) returns (bool success) {\r\n        courseList.push(_ID);\r\n        courseStruct[_ID].coursePointer = courseList.length - 1;\r\n        courseStruct[_ID].studentID = _student;\r\n        courseStruct[_ID].schoolID = msg.sender;\r\n        courseStruct[_ID].courseName = _courseName;\r\n        courseStruct[_ID].IPFShash = _IPFShash;\r\n\r\n        emit certificateCreated(_courseName);\r\n        return (true);\r\n    }\r\n\r\n    function createCertificate(\r\n        bytes32 _ID,\r\n        address _student,\r\n        string memory _courseName\r\n    ) public isSchool(msg.sender) returns (bool success) {\r\n        certificateList.push(_ID);\r\n        certificateStruct[_ID].certificatePointer = certificateList.length - 1;\r\n        certificateStruct[_ID].studentID = _student;\r\n        certificateStruct[_ID].schoolID = msg.sender;\r\n        certificateStruct[_ID].courseName = _courseName;\r\n\r\n        emit certificateCreated(_courseName);\r\n        return (true);\r\n    }\r\n\r\n    function fetchSchool(address _schoolAddress)\r\n        public\r\n        view\r\n        returns (\r\n            uint256 certificatePointer,\r\n            string memory name,\r\n            string memory IPFShash,\r\n            address schoolOwner\r\n        )\r\n    {\r\n        certificatePointer = schoolStruct[_schoolAddress].certificatePointer;\r\n        name = schoolStruct[_schoolAddress].name;\r\n        IPFShash = schoolStruct[_schoolAddress].IPFShash;\r\n        schoolOwner = schoolStruct[_schoolAddress].schoolOwner;\r\n        return (certificatePointer, name, IPFShash, schoolOwner);\r\n    }\r\n\r\n    function fetchStudent(address _studentAddress)\r\n        public\r\n        view\r\n        returns (\r\n            uint256 certificatePointer,\r\n            string memory name,\r\n            string memory IPFShash\r\n        )\r\n    {\r\n        certificatePointer = studentListtruct[_studentAddress]\r\n            .certificatePointer;\r\n        name = studentListtruct[_studentAddress].name;\r\n        IPFShash = studentListtruct[_studentAddress].IPFShash;\r\n        return (certificatePointer, name, IPFShash);\r\n    }\r\n\r\n    function fetchCourse(bytes32 _course)\r\n        public\r\n        view\r\n        returns (\r\n            uint256 coursePointer,\r\n            address studentID,\r\n            address schoolID,\r\n            string memory courseName,\r\n            string memory IPFShash // additional info\r\n        )\r\n    {\r\n        coursePointer = courseStruct[_course].coursePointer;\r\n        schoolID = courseStruct[_course].schoolID;\r\n        courseName = courseStruct[_course].courseName;\r\n        IPFShash = courseStruct[_course].IPFShash;\r\n        return (coursePointer, studentID, schoolID, courseName, IPFShash);\r\n    }\r\n\r\n    function fetchCertificate(bytes32 _certificate)\r\n        public\r\n        view\r\n        returns (\r\n            uint256 certificatePointer,\r\n            address studentID,\r\n            address schoolID,\r\n            bytes32 courseID,\r\n            string memory courseName\r\n        )\r\n    {\r\n        certificatePointer = certificateStruct[_certificate].certificatePointer;\r\n        studentID = certificateStruct[_certificate].studentID;\r\n        schoolID = certificateStruct[_certificate].schoolID;\r\n        courseName = certificateStruct[_certificate].courseName;\r\n        return (certificatePointer, studentID, schoolID, courseID, courseName);\r\n    }\r\n}\r\n",
  "sourcePath": "D:\\preject\\solidity-code\\blockchain-developer-bootcamp-final-project\\contracts\\Certifiction.sol",
  "compiler": {
    "name": "solc",
    "version": "0.8.9+commit.e5eed63a.Emscripten.clang"
  },
  "schemaVersion": "3.4.3",
  "updatedAt": "2021-11-30T21:31:17.693Z",
  "networkType": "ethereum",
  "devdoc": {
    "kind": "dev",
    "methods": {
      "createStudent(string,string)": {
        "details": "school should add student to the school list"
      }
    },
    "title": "@author Sarem Eskandary",
    "version": 1
  },
  "userdoc": {
    "kind": "user",
    "methods": {},
    "notice": "@dev",
    "version": 1
  }
}